{
  "contractName": "Diploma",
  "abi": [
    {
      "inputs": [],
      "stateMutability": "nonpayable",
      "type": "constructor"
    },
    {
      "anonymous": false,
      "inputs": [
        {
          "indexed": true,
          "internalType": "address",
          "name": "owner",
          "type": "address"
        },
        {
          "indexed": true,
          "internalType": "address",
          "name": "approved",
          "type": "address"
        },
        {
          "indexed": true,
          "internalType": "uint256",
          "name": "tokenId",
          "type": "uint256"
        }
      ],
      "name": "Approval",
      "type": "event"
    },
    {
      "anonymous": false,
      "inputs": [
        {
          "indexed": true,
          "internalType": "address",
          "name": "owner",
          "type": "address"
        },
        {
          "indexed": true,
          "internalType": "address",
          "name": "operator",
          "type": "address"
        },
        {
          "indexed": false,
          "internalType": "bool",
          "name": "approved",
          "type": "bool"
        }
      ],
      "name": "ApprovalForAll",
      "type": "event"
    },
    {
      "anonymous": false,
      "inputs": [
        {
          "indexed": true,
          "internalType": "address",
          "name": "previousOwner",
          "type": "address"
        },
        {
          "indexed": true,
          "internalType": "address",
          "name": "newOwner",
          "type": "address"
        }
      ],
      "name": "OwnershipTransferred",
      "type": "event"
    },
    {
      "anonymous": false,
      "inputs": [
        {
          "indexed": true,
          "internalType": "address",
          "name": "from",
          "type": "address"
        },
        {
          "indexed": true,
          "internalType": "address",
          "name": "to",
          "type": "address"
        },
        {
          "indexed": true,
          "internalType": "uint256",
          "name": "tokenId",
          "type": "uint256"
        }
      ],
      "name": "Transfer",
      "type": "event"
    },
    {
      "inputs": [
        {
          "internalType": "address",
          "name": "to",
          "type": "address"
        },
        {
          "internalType": "uint256",
          "name": "tokenId",
          "type": "uint256"
        }
      ],
      "name": "approve",
      "outputs": [],
      "stateMutability": "nonpayable",
      "type": "function"
    },
    {
      "inputs": [
        {
          "internalType": "address",
          "name": "owner",
          "type": "address"
        }
      ],
      "name": "balanceOf",
      "outputs": [
        {
          "internalType": "uint256",
          "name": "",
          "type": "uint256"
        }
      ],
      "stateMutability": "view",
      "type": "function",
      "constant": true
    },
    {
      "inputs": [
        {
          "internalType": "uint256",
          "name": "",
          "type": "uint256"
        }
      ],
      "name": "diplomaData",
      "outputs": [
        {
          "internalType": "string",
          "name": "studentName",
          "type": "string"
        },
        {
          "internalType": "string",
          "name": "degreeType",
          "type": "string"
        },
        {
          "internalType": "string",
          "name": "issuingDate",
          "type": "string"
        }
      ],
      "stateMutability": "view",
      "type": "function",
      "constant": true
    },
    {
      "inputs": [
        {
          "internalType": "uint256",
          "name": "tokenId",
          "type": "uint256"
        }
      ],
      "name": "getApproved",
      "outputs": [
        {
          "internalType": "address",
          "name": "",
          "type": "address"
        }
      ],
      "stateMutability": "view",
      "type": "function",
      "constant": true
    },
    {
      "inputs": [
        {
          "internalType": "address",
          "name": "owner",
          "type": "address"
        },
        {
          "internalType": "address",
          "name": "operator",
          "type": "address"
        }
      ],
      "name": "isApprovedForAll",
      "outputs": [
        {
          "internalType": "bool",
          "name": "",
          "type": "bool"
        }
      ],
      "stateMutability": "view",
      "type": "function",
      "constant": true
    },
    {
      "inputs": [],
      "name": "name",
      "outputs": [
        {
          "internalType": "string",
          "name": "",
          "type": "string"
        }
      ],
      "stateMutability": "view",
      "type": "function",
      "constant": true
    },
    {
      "inputs": [],
      "name": "owner",
      "outputs": [
        {
          "internalType": "address",
          "name": "",
          "type": "address"
        }
      ],
      "stateMutability": "view",
      "type": "function",
      "constant": true
    },
    {
      "inputs": [
        {
          "internalType": "uint256",
          "name": "tokenId",
          "type": "uint256"
        }
      ],
      "name": "ownerOf",
      "outputs": [
        {
          "internalType": "address",
          "name": "",
          "type": "address"
        }
      ],
      "stateMutability": "view",
      "type": "function",
      "constant": true
    },
    {
      "inputs": [],
      "name": "renounceOwnership",
      "outputs": [],
      "stateMutability": "nonpayable",
      "type": "function"
    },
    {
      "inputs": [
        {
          "internalType": "address",
          "name": "from",
          "type": "address"
        },
        {
          "internalType": "address",
          "name": "to",
          "type": "address"
        },
        {
          "internalType": "uint256",
          "name": "tokenId",
          "type": "uint256"
        }
      ],
      "name": "safeTransferFrom",
      "outputs": [],
      "stateMutability": "nonpayable",
      "type": "function"
    },
    {
      "inputs": [
        {
          "internalType": "address",
          "name": "from",
          "type": "address"
        },
        {
          "internalType": "address",
          "name": "to",
          "type": "address"
        },
        {
          "internalType": "uint256",
          "name": "tokenId",
          "type": "uint256"
        },
        {
          "internalType": "bytes",
          "name": "data",
          "type": "bytes"
        }
      ],
      "name": "safeTransferFrom",
      "outputs": [],
      "stateMutability": "nonpayable",
      "type": "function"
    },
    {
      "inputs": [
        {
          "internalType": "address",
          "name": "operator",
          "type": "address"
        },
        {
          "internalType": "bool",
          "name": "approved",
          "type": "bool"
        }
      ],
      "name": "setApprovalForAll",
      "outputs": [],
      "stateMutability": "nonpayable",
      "type": "function"
    },
    {
      "inputs": [
        {
          "internalType": "bytes4",
          "name": "interfaceId",
          "type": "bytes4"
        }
      ],
      "name": "supportsInterface",
      "outputs": [
        {
          "internalType": "bool",
          "name": "",
          "type": "bool"
        }
      ],
      "stateMutability": "view",
      "type": "function",
      "constant": true
    },
    {
      "inputs": [],
      "name": "symbol",
      "outputs": [
        {
          "internalType": "string",
          "name": "",
          "type": "string"
        }
      ],
      "stateMutability": "view",
      "type": "function",
      "constant": true
    },
    {
      "inputs": [
        {
          "internalType": "uint256",
          "name": "index",
          "type": "uint256"
        }
      ],
      "name": "tokenByIndex",
      "outputs": [
        {
          "internalType": "uint256",
          "name": "",
          "type": "uint256"
        }
      ],
      "stateMutability": "view",
      "type": "function",
      "constant": true
    },
    {
      "inputs": [
        {
          "internalType": "address",
          "name": "owner",
          "type": "address"
        },
        {
          "internalType": "uint256",
          "name": "index",
          "type": "uint256"
        }
      ],
      "name": "tokenOfOwnerByIndex",
      "outputs": [
        {
          "internalType": "uint256",
          "name": "",
          "type": "uint256"
        }
      ],
      "stateMutability": "view",
      "type": "function",
      "constant": true
    },
    {
      "inputs": [
        {
          "internalType": "uint256",
          "name": "tokenId",
          "type": "uint256"
        }
      ],
      "name": "tokenURI",
      "outputs": [
        {
          "internalType": "string",
          "name": "",
          "type": "string"
        }
      ],
      "stateMutability": "view",
      "type": "function",
      "constant": true
    },
    {
      "inputs": [],
      "name": "totalSupply",
      "outputs": [
        {
          "internalType": "uint256",
          "name": "",
          "type": "uint256"
        }
      ],
      "stateMutability": "view",
      "type": "function",
      "constant": true
    },
    {
      "inputs": [
        {
          "internalType": "address",
          "name": "from",
          "type": "address"
        },
        {
          "internalType": "address",
          "name": "to",
          "type": "address"
        },
        {
          "internalType": "uint256",
          "name": "tokenId",
          "type": "uint256"
        }
      ],
      "name": "transferFrom",
      "outputs": [],
      "stateMutability": "nonpayable",
      "type": "function"
    },
    {
      "inputs": [
        {
          "internalType": "address",
          "name": "newOwner",
          "type": "address"
        }
      ],
      "name": "transferOwnership",
      "outputs": [],
      "stateMutability": "nonpayable",
      "type": "function"
    },
    {
      "inputs": [
        {
          "internalType": "address",
          "name": "to",
          "type": "address"
        },
        {
          "internalType": "uint256",
          "name": "tokenId",
          "type": "uint256"
        },
        {
          "internalType": "string",
          "name": "studentName",
          "type": "string"
        },
        {
          "internalType": "string",
          "name": "degreeType",
          "type": "string"
        },
        {
          "internalType": "string",
          "name": "issuingDate",
          "type": "string"
        }
      ],
      "name": "mintDiploma",
      "outputs": [],
      "stateMutability": "nonpayable",
      "type": "function"
    }
  ],
  "bytecode": "0x60806040523480156200001157600080fd5b50604080518082018252600c81526b2234b83637b6b0a1b430b4b760a11b602080830191825283518085019094526002845261444360f01b9084015281519192916200006091600091620000ef565b50805162000076906001906020840190620000ef565b505050620000936200008d6200009960201b60201c565b6200009d565b620001d2565b3390565b600a80546001600160a01b038381166001600160a01b0319831681179093556040519116919082907f8be0079c531659141344cd1fd0a4f28419497f9722a3daafe3b4186f6b6457e090600090a35050565b828054620000fd9062000195565b90600052602060002090601f0160209004810192826200012157600085556200016c565b82601f106200013c57805160ff19168380011785556200016c565b828001600101855582156200016c579182015b828111156200016c5782518255916020019190600101906200014f565b506200017a9291506200017e565b5090565b5b808211156200017a57600081556001016200017f565b600281046001821680620001aa57607f821691505b60208210811415620001cc57634e487b7160e01b600052602260045260246000fd5b50919050565b611df480620001e26000396000f3fe608060405234801561001057600080fd5b50600436106101375760003560e01c80636352211e116100b8578063a22cb4651161007c578063a22cb46514610261578063b88d4fde14610274578063c87b56dd14610287578063dd20676c1461029a578063e985e9c5146102bc578063f2fde38b146102cf57610137565b80636352211e1461022357806370a0823114610236578063715018a6146102495780638da5cb5b1461025157806395d89b411461025957610137565b80631bb8ce03116100ff5780631bb8ce03146101c457806323b872dd146101d75780632f745c59146101ea57806342842e0e146101fd5780634f6ccce71461021057610137565b806301ffc9a71461013c57806306fdde0314610165578063081812fc1461017a578063095ea7b31461019a57806318160ddd146101af575b600080fd5b61014f61014a36600461175c565b6102e2565b60405161015c9190611858565b60405180910390f35b61016d61030f565b60405161015c9190611863565b61018d610188366004611794565b6103a1565b60405161015c9190611807565b6101ad6101a8366004611694565b6103c8565b005b6101b7610469565b60405161015c9190611cff565b6101ad6101d23660046116bd565b61046f565b6101ad6101e53660046115a6565b6104fd565b6101b76101f8366004611694565b610535565b6101ad61020b3660046115a6565b610587565b6101b761021e366004611794565b6105a2565b61018d610231366004611794565b6105fd565b6101b761024436600461155a565b610631565b6101ad610675565b61018d610689565b61016d610698565b6101ad61026f36600461165a565b6106a7565b6101ad6102823660046115e1565b6106bd565b61016d610295366004611794565b6106fc565b6102ad6102a8366004611794565b610763565b60405161015c93929190611876565b61014f6102ca366004611574565b61091d565b6101ad6102dd36600461155a565b61094b565b60006001600160e01b0319821663780e9d6360e01b1480610307575061030782610985565b90505b919050565b60606000805461031e90611d57565b80601f016020809104026020016040519081016040528092919081815260200182805461034a90611d57565b80156103975780601f1061036c57610100808354040283529160200191610397565b820191906000526020600020905b81548152906001019060200180831161037a57829003601f168201915b5050505050905090565b60006103ac826109c5565b506000908152600460205260409020546001600160a01b031690565b60006103d3826105fd565b9050806001600160a01b0316836001600160a01b031614156104105760405162461bcd60e51b815260040161040790611bc0565b60405180910390fd5b806001600160a01b03166104226109ea565b6001600160a01b0316148061043e575061043e816102ca6109ea565b61045a5760405162461bcd60e51b815260040161040790611c01565b61046483836109ee565b505050565b60085490565b610477610a5c565b6104818585610a9b565b6040805160608101825284815260208082018590528183018490526000878152600b82529290922081518051929391926104be9284920190611415565b5060208281015180516104d79260018501920190611415565b50604082015180516104f3916002840191602090910190611415565b5050505050505050565b61050e6105086109ea565b82610b90565b61052a5760405162461bcd60e51b8152600401610407906118af565b610464838383610bef565b600061054083610631565b821061055e5760405162461bcd60e51b8152600401610407906118fc565b506001600160a01b03919091166000908152600660209081526040808320938352929052205490565b610464838383604051806020016040528060008152506106bd565b60006105ac610469565b82106105ca5760405162461bcd60e51b815260040161040790611c5e565b600882815481106105eb57634e487b7160e01b600052603260045260246000fd5b90600052602060002001549050919050565b60008061060983610d2c565b90506001600160a01b0381166103075760405162461bcd60e51b815260040161040790611b89565b60006001600160a01b0382166106595760405162461bcd60e51b815260040161040790611ad6565b506001600160a01b031660009081526003602052604090205490565b61067d610a5c565b6106876000610d47565b565b600a546001600160a01b031690565b60606001805461031e90611d57565b6106b96106b26109ea565b8383610d99565b5050565b6106ce6106c86109ea565b83610b90565b6106ea5760405162461bcd60e51b8152600401610407906118af565b6106f684848484610e3c565b50505050565b6060610707826109c5565b6000610711610e6f565b90506000815111610731576040518060200160405280600081525061075c565b8061073b84610e81565b60405160200161074c9291906117d8565b6040516020818303038152906040525b9392505050565b600b6020526000908152604090208054819061077e90611d57565b80601f01602080910402602001604051908101604052809291908181526020018280546107aa90611d57565b80156107f75780601f106107cc576101008083540402835291602001916107f7565b820191906000526020600020905b8154815290600101906020018083116107da57829003601f168201915b50505050509080600101805461080c90611d57565b80601f016020809104026020016040519081016040528092919081815260200182805461083890611d57565b80156108855780601f1061085a57610100808354040283529160200191610885565b820191906000526020600020905b81548152906001019060200180831161086857829003601f168201915b50505050509080600201805461089a90611d57565b80601f01602080910402602001604051908101604052809291908181526020018280546108c690611d57565b80156109135780601f106108e857610100808354040283529160200191610913565b820191906000526020600020905b8154815290600101906020018083116108f657829003601f168201915b5050505050905083565b6001600160a01b03918216600090815260056020908152604080832093909416825291909152205460ff1690565b610953610a5c565b6001600160a01b0381166109795760405162461bcd60e51b815260040161040790611999565b61098281610d47565b50565b60006001600160e01b031982166380ac58cd60e01b14806109b657506001600160e01b03198216635b5e139f60e01b145b80610307575061030782610f2c565b6109ce81610f45565b6109825760405162461bcd60e51b815260040161040790611b89565b3390565b600081815260046020526040902080546001600160a01b0319166001600160a01b0384169081179091558190610a23826105fd565b6001600160a01b03167f8c5be1e5ebec7d5bd14f71427d1e84f3dd0314c0f7b2291e5b200ac8c7c3b92560405160405180910390a45050565b610a646109ea565b6001600160a01b0316610a75610689565b6001600160a01b0316146106875760405162461bcd60e51b815260040161040790611b54565b6001600160a01b038216610ac15760405162461bcd60e51b815260040161040790611b1f565b610aca81610f45565b15610ae75760405162461bcd60e51b815260040161040790611a24565b610af5600083836001610f62565b610afe81610f45565b15610b1b5760405162461bcd60e51b815260040161040790611a24565b6001600160a01b038216600081815260036020908152604080832080546001019055848352600290915280822080546001600160a01b0319168417905551839291907fddf252ad1be2c89b69c2b068fc378daa952ba7f163c4a11628f55a4df523b3ef908290a46106b96000838360016106f6565b600080610b9c836105fd565b9050806001600160a01b0316846001600160a01b03161480610bc35750610bc3818561091d565b80610be75750836001600160a01b0316610bdc846103a1565b6001600160a01b0316145b949350505050565b826001600160a01b0316610c02826105fd565b6001600160a01b031614610c285760405162461bcd60e51b8152600401610407906119df565b6001600160a01b038216610c4e5760405162461bcd60e51b815260040161040790611a5b565b610c5b8383836001610f62565b826001600160a01b0316610c6e826105fd565b6001600160a01b031614610c945760405162461bcd60e51b8152600401610407906119df565b600081815260046020908152604080832080546001600160a01b03199081169091556001600160a01b0387811680865260038552838620805460001901905590871680865283862080546001019055868652600290945282852080549092168417909155905184937fddf252ad1be2c89b69c2b068fc378daa952ba7f163c4a11628f55a4df523b3ef91a461046483838360016106f6565b6000908152600260205260409020546001600160a01b031690565b600a80546001600160a01b038381166001600160a01b0319831681179093556040519116919082907f8be0079c531659141344cd1fd0a4f28419497f9722a3daafe3b4186f6b6457e090600090a35050565b816001600160a01b0316836001600160a01b03161415610dcb5760405162461bcd60e51b815260040161040790611a9f565b6001600160a01b0383811660008181526005602090815260408083209487168084529490915290819020805460ff1916851515179055517f17307eab39ab6107e8899845ad3d59bd9653f200f220920489ca2b5937696c3190610e2f908590611858565b60405180910390a3505050565b610e47848484610bef565b610e5384848484611015565b6106f65760405162461bcd60e51b815260040161040790611947565b60408051602081019091526000815290565b60606000610e8e83611130565b600101905060008167ffffffffffffffff811115610ebc57634e487b7160e01b600052604160045260246000fd5b6040519080825280601f01601f191660200182016040528015610ee6576020820181803683370190505b5090508181016020015b600019016f181899199a1a9b1b9c1cb0b131b232b360811b600a86061a8153600a8504945084610f1f57610f24565b610ef0565b509392505050565b6001600160e01b031981166301ffc9a760e01b14919050565b600080610f5183610d2c565b6001600160a01b0316141592915050565b610f6e848484846106f6565b6001811115610f8f5760405162461bcd60e51b815260040161040790611caa565b816001600160a01b038516610fac57610fa781611208565b610fcf565b836001600160a01b0316856001600160a01b031614610fcf57610fcf858261124c565b6001600160a01b038416610feb57610fe6816112e9565b61100e565b846001600160a01b0316846001600160a01b03161461100e5761100e84826113c2565b5050505050565b6000611029846001600160a01b0316611406565b1561112557836001600160a01b031663150b7a026110456109ea565b8786866040518563ffffffff1660e01b8152600401611067949392919061181b565b602060405180830381600087803b15801561108157600080fd5b505af19250505080156110b1575060408051601f3d908101601f191682019092526110ae91810190611778565b60015b61110b573d8080156110df576040519150601f19603f3d011682016040523d82523d6000602084013e6110e4565b606091505b5080516111035760405162461bcd60e51b815260040161040790611947565b805181602001fd5b6001600160e01b031916630a85bd0160e11b149050610be7565b506001949350505050565b60008072184f03e93ff9f4daa797ed6e38ed64bf6a1f0160401b831061116f5772184f03e93ff9f4daa797ed6e38ed64bf6a1f0160401b830492506040015b6d04ee2d6d415b85acef8100000000831061119b576d04ee2d6d415b85acef8100000000830492506020015b662386f26fc1000083106111b957662386f26fc10000830492506010015b6305f5e10083106111d1576305f5e100830492506008015b61271083106111e557612710830492506004015b606483106111f7576064830492506002015b600a83106103075760010192915050565b600880546000838152600960205260408120829055600182018355919091527ff3f7a9fe364faab93b216da50a3214154f22a0a2b415b23a84c8169e8b636ee30155565b6000600161125984610631565b6112639190611d08565b6000838152600760205260409020549091508082146112b6576001600160a01b03841660009081526006602090815260408083208584528252808320548484528184208190558352600790915290208190555b5060009182526007602090815260408084208490556001600160a01b039094168352600681528383209183525290812055565b6008546000906112fb90600190611d08565b6000838152600960205260408120546008805493945090928490811061133157634e487b7160e01b600052603260045260246000fd5b90600052602060002001549050806008838154811061136057634e487b7160e01b600052603260045260246000fd5b60009182526020808320909101929092558281526009909152604080822084905585825281205560088054806113a657634e487b7160e01b600052603160045260246000fd5b6001900381819060005260206000200160009055905550505050565b60006113cd83610631565b6001600160a01b039093166000908152600660209081526040808320868452825280832085905593825260079052919091209190915550565b6001600160a01b03163b151590565b82805461142190611d57565b90600052602060002090601f0160209004810192826114435760008555611489565b82601f1061145c57805160ff1916838001178555611489565b82800160010185558215611489579182015b8281111561148957825182559160200191906001019061146e565b50611495929150611499565b5090565b5b80821115611495576000815560010161149a565b600067ffffffffffffffff808411156114c9576114c9611d92565b604051601f8501601f19908116603f011681019082821181831017156114f1576114f1611d92565b8160405280935085815286868601111561150a57600080fd5b858560208301376000602087830101525050509392505050565b80356001600160a01b038116811461030a57600080fd5b600082601f83011261154b578081fd5b61075c838335602085016114ae565b60006020828403121561156b578081fd5b61075c82611524565b60008060408385031215611586578081fd5b61158f83611524565b915061159d60208401611524565b90509250929050565b6000806000606084860312156115ba578081fd5b6115c384611524565b92506115d160208501611524565b9150604084013590509250925092565b600080600080608085870312156115f6578081fd5b6115ff85611524565b935061160d60208601611524565b925060408501359150606085013567ffffffffffffffff81111561162f578182fd5b8501601f8101871361163f578182fd5b61164e878235602084016114ae565b91505092959194509250565b6000806040838503121561166c578182fd5b61167583611524565b915060208301358015158114611689578182fd5b809150509250929050565b600080604083850312156116a6578182fd5b6116af83611524565b946020939093013593505050565b600080600080600060a086880312156116d4578081fd5b6116dd86611524565b945060208601359350604086013567ffffffffffffffff80821115611700578283fd5b61170c89838a0161153b565b94506060880135915080821115611721578283fd5b61172d89838a0161153b565b93506080880135915080821115611742578283fd5b5061174f8882890161153b565b9150509295509295909350565b60006020828403121561176d578081fd5b813561075c81611da8565b600060208284031215611789578081fd5b815161075c81611da8565b6000602082840312156117a5578081fd5b5035919050565b600081518084526117c4816020860160208601611d2b565b601f01601f19169290920160200192915050565b600083516117ea818460208801611d2b565b8351908301906117fe818360208801611d2b565b01949350505050565b6001600160a01b0391909116815260200190565b6001600160a01b038581168252841660208201526040810183905260806060820181905260009061184e908301846117ac565b9695505050505050565b901515815260200190565b60006020825261075c60208301846117ac565b60006060825261188960608301866117ac565b828103602084015261189b81866117ac565b9050828103604084015261184e81856117ac565b6020808252602d908201527f4552433732313a2063616c6c6572206973206e6f7420746f6b656e206f776e6560408201526c1c881bdc88185c1c1c9bdd9959609a1b606082015260800190565b6020808252602b908201527f455243373231456e756d657261626c653a206f776e657220696e646578206f7560408201526a74206f6620626f756e647360a81b606082015260800190565b60208082526032908201527f4552433732313a207472616e7366657220746f206e6f6e20455243373231526560408201527131b2b4bb32b91034b6b83632b6b2b73a32b960711b606082015260800190565b60208082526026908201527f4f776e61626c653a206e6577206f776e657220697320746865207a65726f206160408201526564647265737360d01b606082015260800190565b60208082526025908201527f4552433732313a207472616e736665722066726f6d20696e636f72726563742060408201526437bbb732b960d91b606082015260800190565b6020808252601c908201527f4552433732313a20746f6b656e20616c7265616479206d696e74656400000000604082015260600190565b60208082526024908201527f4552433732313a207472616e7366657220746f20746865207a65726f206164646040820152637265737360e01b606082015260800190565b60208082526019908201527f4552433732313a20617070726f766520746f2063616c6c657200000000000000604082015260600190565b60208082526029908201527f4552433732313a2061646472657373207a65726f206973206e6f7420612076616040820152683634b21037bbb732b960b91b606082015260800190565b6020808252818101527f4552433732313a206d696e7420746f20746865207a65726f2061646472657373604082015260600190565b6020808252818101527f4f776e61626c653a2063616c6c6572206973206e6f7420746865206f776e6572604082015260600190565b60208082526018908201527f4552433732313a20696e76616c696420746f6b656e2049440000000000000000604082015260600190565b60208082526021908201527f4552433732313a20617070726f76616c20746f2063757272656e74206f776e656040820152603960f91b606082015260800190565b6020808252603d908201527f4552433732313a20617070726f76652063616c6c6572206973206e6f7420746f60408201527f6b656e206f776e6572206f7220617070726f76656420666f7220616c6c000000606082015260800190565b6020808252602c908201527f455243373231456e756d657261626c653a20676c6f62616c20696e646578206f60408201526b7574206f6620626f756e647360a01b606082015260800190565b60208082526035908201527f455243373231456e756d657261626c653a20636f6e7365637574697665207472604082015274185b9cd9995c9cc81b9bdd081cdd5c1c1bdc9d1959605a1b606082015260800190565b90815260200190565b600082821015611d2657634e487b7160e01b81526011600452602481fd5b500390565b60005b83811015611d46578181015183820152602001611d2e565b838111156106f65750506000910152565b600281046001821680611d6b57607f821691505b60208210811415611d8c57634e487b7160e01b600052602260045260246000fd5b50919050565b634e487b7160e01b600052604160045260246000fd5b6001600160e01b03198116811461098257600080fdfea264697066735822122023e20e5c011de0de570e12f4fc0a1a90b4ebc75fb9d11a0807a66b08f0923b0364736f6c63430008010033",
  "immutableReferences": {},
  "source": "// Diploma.sol\n// SPDX-License-Identifier: MIT\npragma solidity ^0.8.0;\n\nimport \"@openzeppelin/contracts/token/ERC721/extensions/ERC721Enumerable.sol\";\nimport \"@openzeppelin/contracts/access/Ownable.sol\";\n\ncontract Diploma is ERC721Enumerable, Ownable {\n\n    struct DiplomaData {\n        string studentName;\n        string degreeType;\n        string issuingDate;\n    }\n\n    mapping(uint256 => DiplomaData) public diplomaData;\n\n    constructor() ERC721(\"DiplomaChain\", \"DC\") {}\n\n    function mintDiploma(address to, uint256 tokenId, string memory studentName, string memory degreeType, string memory issuingDate) public onlyOwner {\n        _mint(to, tokenId);\n        diplomaData[tokenId] = DiplomaData(studentName, degreeType, issuingDate);\n    }\n}\n",
  "sourcePath": "/Users/aranudayakumar/Documents/diplomachain/contracts/Diploma.sol",
  "compiler": {
    "name": "solc",
    "version": "0.8.1+commit.df193b15.Emscripten.clang"
  },
  "schemaVersion": "3.4.16",
  "updatedAt": "2023-09-30T22:49:57.215Z",
  "networkType": "ethereum",
  "devdoc": {
    "kind": "dev",
    "methods": {
      "approve(address,uint256)": {
        "details": "See {IERC721-approve}."
      },
      "balanceOf(address)": {
        "details": "See {IERC721-balanceOf}."
      },
      "getApproved(uint256)": {
        "details": "See {IERC721-getApproved}."
      },
      "isApprovedForAll(address,address)": {
        "details": "See {IERC721-isApprovedForAll}."
      },
      "name()": {
        "details": "See {IERC721Metadata-name}."
      },
      "owner()": {
        "details": "Returns the address of the current owner."
      },
      "ownerOf(uint256)": {
        "details": "See {IERC721-ownerOf}."
      },
      "renounceOwnership()": {
        "details": "Leaves the contract without owner. It will not be possible to call `onlyOwner` functions. Can only be called by the current owner. NOTE: Renouncing ownership will leave the contract without an owner, thereby disabling any functionality that is only available to the owner."
      },
      "safeTransferFrom(address,address,uint256)": {
        "details": "See {IERC721-safeTransferFrom}."
      },
      "safeTransferFrom(address,address,uint256,bytes)": {
        "details": "See {IERC721-safeTransferFrom}."
      },
      "setApprovalForAll(address,bool)": {
        "details": "See {IERC721-setApprovalForAll}."
      },
      "supportsInterface(bytes4)": {
        "details": "See {IERC165-supportsInterface}."
      },
      "symbol()": {
        "details": "See {IERC721Metadata-symbol}."
      },
      "tokenByIndex(uint256)": {
        "details": "See {IERC721Enumerable-tokenByIndex}."
      },
      "tokenOfOwnerByIndex(address,uint256)": {
        "details": "See {IERC721Enumerable-tokenOfOwnerByIndex}."
      },
      "tokenURI(uint256)": {
        "details": "See {IERC721Metadata-tokenURI}."
      },
      "totalSupply()": {
        "details": "See {IERC721Enumerable-totalSupply}."
      },
      "transferFrom(address,address,uint256)": {
        "details": "See {IERC721-transferFrom}."
      },
      "transferOwnership(address)": {
        "details": "Transfers ownership of the contract to a new account (`newOwner`). Can only be called by the current owner."
      }
    },
    "version": 1
  },
  "userdoc": {
    "kind": "user",
    "methods": {},
    "version": 1
  }
}