{
  "contractName": "MyToken",
  "abi": [
    {
      "inputs": [],
      "stateMutability": "nonpayable",
      "type": "constructor"
    },
    {
      "anonymous": false,
      "inputs": [
        {
          "indexed": true,
          "internalType": "address",
          "name": "owner",
          "type": "address"
        },
        {
          "indexed": true,
          "internalType": "address",
          "name": "approved",
          "type": "address"
        },
        {
          "indexed": true,
          "internalType": "uint256",
          "name": "tokenId",
          "type": "uint256"
        }
      ],
      "name": "Approval",
      "type": "event"
    },
    {
      "anonymous": false,
      "inputs": [
        {
          "indexed": true,
          "internalType": "address",
          "name": "owner",
          "type": "address"
        },
        {
          "indexed": true,
          "internalType": "address",
          "name": "operator",
          "type": "address"
        },
        {
          "indexed": false,
          "internalType": "bool",
          "name": "approved",
          "type": "bool"
        }
      ],
      "name": "ApprovalForAll",
      "type": "event"
    },
    {
      "anonymous": false,
      "inputs": [
        {
          "indexed": true,
          "internalType": "address",
          "name": "previousOwner",
          "type": "address"
        },
        {
          "indexed": true,
          "internalType": "address",
          "name": "newOwner",
          "type": "address"
        }
      ],
      "name": "OwnershipTransferred",
      "type": "event"
    },
    {
      "anonymous": false,
      "inputs": [
        {
          "indexed": true,
          "internalType": "address",
          "name": "from",
          "type": "address"
        },
        {
          "indexed": true,
          "internalType": "address",
          "name": "to",
          "type": "address"
        },
        {
          "indexed": true,
          "internalType": "uint256",
          "name": "tokenId",
          "type": "uint256"
        }
      ],
      "name": "Transfer",
      "type": "event"
    },
    {
      "inputs": [
        {
          "internalType": "address",
          "name": "to",
          "type": "address"
        },
        {
          "internalType": "uint256",
          "name": "tokenId",
          "type": "uint256"
        }
      ],
      "name": "approve",
      "outputs": [],
      "stateMutability": "nonpayable",
      "type": "function"
    },
    {
      "inputs": [
        {
          "internalType": "address",
          "name": "owner",
          "type": "address"
        }
      ],
      "name": "balanceOf",
      "outputs": [
        {
          "internalType": "uint256",
          "name": "",
          "type": "uint256"
        }
      ],
      "stateMutability": "view",
      "type": "function"
    },
    {
      "inputs": [
        {
          "internalType": "uint256",
          "name": "tokenId",
          "type": "uint256"
        }
      ],
      "name": "getApproved",
      "outputs": [
        {
          "internalType": "address",
          "name": "",
          "type": "address"
        }
      ],
      "stateMutability": "view",
      "type": "function"
    },
    {
      "inputs": [
        {
          "internalType": "address",
          "name": "owner",
          "type": "address"
        },
        {
          "internalType": "address",
          "name": "operator",
          "type": "address"
        }
      ],
      "name": "isApprovedForAll",
      "outputs": [
        {
          "internalType": "bool",
          "name": "",
          "type": "bool"
        }
      ],
      "stateMutability": "view",
      "type": "function"
    },
    {
      "inputs": [],
      "name": "name",
      "outputs": [
        {
          "internalType": "string",
          "name": "",
          "type": "string"
        }
      ],
      "stateMutability": "view",
      "type": "function"
    },
    {
      "inputs": [],
      "name": "owner",
      "outputs": [
        {
          "internalType": "address",
          "name": "",
          "type": "address"
        }
      ],
      "stateMutability": "view",
      "type": "function"
    },
    {
      "inputs": [
        {
          "internalType": "uint256",
          "name": "tokenId",
          "type": "uint256"
        }
      ],
      "name": "ownerOf",
      "outputs": [
        {
          "internalType": "address",
          "name": "",
          "type": "address"
        }
      ],
      "stateMutability": "view",
      "type": "function"
    },
    {
      "inputs": [],
      "name": "renounceOwnership",
      "outputs": [],
      "stateMutability": "nonpayable",
      "type": "function"
    },
    {
      "inputs": [
        {
          "internalType": "address",
          "name": "from",
          "type": "address"
        },
        {
          "internalType": "address",
          "name": "to",
          "type": "address"
        },
        {
          "internalType": "uint256",
          "name": "tokenId",
          "type": "uint256"
        }
      ],
      "name": "safeTransferFrom",
      "outputs": [],
      "stateMutability": "nonpayable",
      "type": "function"
    },
    {
      "inputs": [
        {
          "internalType": "address",
          "name": "from",
          "type": "address"
        },
        {
          "internalType": "address",
          "name": "to",
          "type": "address"
        },
        {
          "internalType": "uint256",
          "name": "tokenId",
          "type": "uint256"
        },
        {
          "internalType": "bytes",
          "name": "data",
          "type": "bytes"
        }
      ],
      "name": "safeTransferFrom",
      "outputs": [],
      "stateMutability": "nonpayable",
      "type": "function"
    },
    {
      "inputs": [
        {
          "internalType": "address",
          "name": "operator",
          "type": "address"
        },
        {
          "internalType": "bool",
          "name": "approved",
          "type": "bool"
        }
      ],
      "name": "setApprovalForAll",
      "outputs": [],
      "stateMutability": "nonpayable",
      "type": "function"
    },
    {
      "inputs": [
        {
          "internalType": "bytes4",
          "name": "interfaceId",
          "type": "bytes4"
        }
      ],
      "name": "supportsInterface",
      "outputs": [
        {
          "internalType": "bool",
          "name": "",
          "type": "bool"
        }
      ],
      "stateMutability": "view",
      "type": "function"
    },
    {
      "inputs": [],
      "name": "symbol",
      "outputs": [
        {
          "internalType": "string",
          "name": "",
          "type": "string"
        }
      ],
      "stateMutability": "view",
      "type": "function"
    },
    {
      "inputs": [
        {
          "internalType": "uint256",
          "name": "index",
          "type": "uint256"
        }
      ],
      "name": "tokenByIndex",
      "outputs": [
        {
          "internalType": "uint256",
          "name": "",
          "type": "uint256"
        }
      ],
      "stateMutability": "view",
      "type": "function"
    },
    {
      "inputs": [
        {
          "internalType": "address",
          "name": "owner",
          "type": "address"
        },
        {
          "internalType": "uint256",
          "name": "index",
          "type": "uint256"
        }
      ],
      "name": "tokenOfOwnerByIndex",
      "outputs": [
        {
          "internalType": "uint256",
          "name": "",
          "type": "uint256"
        }
      ],
      "stateMutability": "view",
      "type": "function"
    },
    {
      "inputs": [
        {
          "internalType": "uint256",
          "name": "tokenId",
          "type": "uint256"
        }
      ],
      "name": "tokenURI",
      "outputs": [
        {
          "internalType": "string",
          "name": "",
          "type": "string"
        }
      ],
      "stateMutability": "view",
      "type": "function"
    },
    {
      "inputs": [],
      "name": "totalSupply",
      "outputs": [
        {
          "internalType": "uint256",
          "name": "",
          "type": "uint256"
        }
      ],
      "stateMutability": "view",
      "type": "function"
    },
    {
      "inputs": [
        {
          "internalType": "address",
          "name": "from",
          "type": "address"
        },
        {
          "internalType": "address",
          "name": "to",
          "type": "address"
        },
        {
          "internalType": "uint256",
          "name": "tokenId",
          "type": "uint256"
        }
      ],
      "name": "transferFrom",
      "outputs": [],
      "stateMutability": "nonpayable",
      "type": "function"
    },
    {
      "inputs": [
        {
          "internalType": "address",
          "name": "newOwner",
          "type": "address"
        }
      ],
      "name": "transferOwnership",
      "outputs": [],
      "stateMutability": "nonpayable",
      "type": "function"
    },
    {
      "inputs": [],
      "name": "mint",
      "outputs": [],
      "stateMutability": "nonpayable",
      "type": "function"
    },
    {
      "inputs": [],
      "name": "getCurrentTokenId",
      "outputs": [
        {
          "internalType": "uint256",
          "name": "",
          "type": "uint256"
        }
      ],
      "stateMutability": "view",
      "type": "function"
    }
  ],
  "bytecode": "0x60806040526000600b553480156200001657600080fd5b50604080518082018252600781526626bcaa37b5b2b760c91b60208083019182528351808501909452600484526326aa25a760e11b9084015281519192916200006291600091620000f1565b50805162000078906001906020840190620000f1565b505050620000956200008f6200009b60201b60201c565b6200009f565b620001d4565b3390565b600a80546001600160a01b038381166001600160a01b0319831681179093556040519116919082907f8be0079c531659141344cd1fd0a4f28419497f9722a3daafe3b4186f6b6457e090600090a35050565b828054620000ff9062000197565b90600052602060002090601f0160209004810192826200012357600085556200016e565b82601f106200013e57805160ff19168380011785556200016e565b828001600101855582156200016e579182015b828111156200016e57825182559160200191906001019062000151565b506200017c92915062000180565b5090565b5b808211156200017c576000815560010162000181565b600281046001821680620001ac57607f821691505b60208210811415620001ce57634e487b7160e01b600052602260045260246000fd5b50919050565b611aac80620001e46000396000f3fe608060405234801561001057600080fd5b50600436106101375760003560e01c806356189236116100b857806395d89b411161007c57806395d89b4114610256578063a22cb4651461025e578063b88d4fde14610271578063c87b56dd14610284578063e985e9c514610297578063f2fde38b146102aa57610137565b806356189236146102185780636352211e1461022057806370a0823114610233578063715018a6146102465780638da5cb5b1461024e57610137565b806318160ddd116100ff57806318160ddd146101b757806323b872dd146101cc5780632f745c59146101df57806342842e0e146101f25780634f6ccce71461020557610137565b806301ffc9a71461013c57806306fdde0314610165578063081812fc1461017a578063095ea7b31461019a5780631249c58b146101af575b600080fd5b61014f61014a3660046113e5565b6102bd565b60405161015c91906114e1565b60405180910390f35b61016d6102ea565b60405161015c91906114ec565b61018d61018836600461141d565b61037c565b60405161015c9190611490565b6101ad6101a83660046113bc565b6103a3565b005b6101ad610444565b6101bf61049b565b60405161015c9190611995565b6101ad6101da366004611272565b6104a1565b6101bf6101ed3660046113bc565b6104d9565b6101ad610200366004611272565b61052b565b6101bf61021336600461141d565b610546565b6101bf6105a1565b61018d61022e36600461141d565b6105a7565b6101bf610241366004611226565b6105db565b6101ad61061f565b61018d610631565b61016d610640565b6101ad61026c366004611382565b61064f565b6101ad61027f3660046112ad565b610665565b61016d61029236600461141d565b6106a4565b61014f6102a5366004611240565b61070b565b6101ad6102b8366004611226565b610739565b60006001600160e01b0319821663780e9d6360e01b14806102e257506102e282610773565b90505b919050565b6060600080546102f9906119f9565b80601f0160208091040260200160405190810160405280929190818152602001828054610325906119f9565b80156103725780601f1061034757610100808354040283529160200191610372565b820191906000526020600020905b81548152906001019060200180831161035557829003601f168201915b5050505050905090565b6000610387826107b3565b506000908152600460205260409020546001600160a01b031690565b60006103ae826105a7565b9050806001600160a01b0316836001600160a01b031614156103eb5760405162461bcd60e51b81526004016103e290611856565b60405180910390fd5b806001600160a01b03166103fd6107d8565b6001600160a01b031614806104195750610419816102a56107d8565b6104355760405162461bcd60e51b81526004016103e290611897565b61043f83836107dc565b505050565b600061044e6107d8565b6001600160a01b031614156104755760405162461bcd60e51b81526004016103e290611726565b600b5461048390600161084a565b600b556104996104916107d8565b600b54610856565b565b60085490565b6104b26104ac6107d8565b8261094b565b6104ce5760405162461bcd60e51b81526004016103e2906114ff565b61043f8383836109aa565b60006104e4836105db565b82106105025760405162461bcd60e51b81526004016103e29061154c565b506001600160a01b03919091166000908152600660209081526040808320938352929052205490565b61043f83838360405180602001604052806000815250610665565b600061055061049b565b821061056e5760405162461bcd60e51b81526004016103e2906118f4565b6008828154811061058f57634e487b7160e01b600052603260045260246000fd5b90600052602060002001549050919050565b600b5490565b6000806105b383610ae7565b90506001600160a01b0381166102e25760405162461bcd60e51b81526004016103e29061181f565b60006001600160a01b0382166106035760405162461bcd60e51b81526004016103e29061176c565b506001600160a01b031660009081526003602052604090205490565b610627610b02565b6104996000610b41565b600a546001600160a01b031690565b6060600180546102f9906119f9565b61066161065a6107d8565b8383610b93565b5050565b6106766106706107d8565b8361094b565b6106925760405162461bcd60e51b81526004016103e2906114ff565b61069e84848484610c36565b50505050565b60606106af826107b3565b60006106b9610c69565b905060008151116106d95760405180602001604052806000815250610704565b806106e384610c7b565b6040516020016106f4929190611461565b6040516020818303038152906040525b9392505050565b6001600160a01b03918216600090815260056020908152604080832093909416825291909152205460ff1690565b610741610b02565b6001600160a01b0381166107675760405162461bcd60e51b81526004016103e2906115e9565b61077081610b41565b50565b60006001600160e01b031982166380ac58cd60e01b14806107a457506001600160e01b03198216635b5e139f60e01b145b806102e257506102e282610d26565b6107bc81610d3f565b6107705760405162461bcd60e51b81526004016103e29061181f565b3390565b600081815260046020526040902080546001600160a01b0319166001600160a01b0384169081179091558190610811826105a7565b6001600160a01b03167f8c5be1e5ebec7d5bd14f71427d1e84f3dd0314c0f7b2291e5b200ac8c7c3b92560405160405180910390a45050565b6000610704828461199e565b6001600160a01b03821661087c5760405162461bcd60e51b81526004016103e2906117b5565b61088581610d3f565b156108a25760405162461bcd60e51b81526004016103e290611674565b6108b0600083836001610d5c565b6108b981610d3f565b156108d65760405162461bcd60e51b81526004016103e290611674565b6001600160a01b038216600081815260036020908152604080832080546001019055848352600290915280822080546001600160a01b0319168417905551839291907fddf252ad1be2c89b69c2b068fc378daa952ba7f163c4a11628f55a4df523b3ef908290a461066160008383600161069e565b600080610957836105a7565b9050806001600160a01b0316846001600160a01b0316148061097e575061097e818561070b565b806109a25750836001600160a01b03166109978461037c565b6001600160a01b0316145b949350505050565b826001600160a01b03166109bd826105a7565b6001600160a01b0316146109e35760405162461bcd60e51b81526004016103e29061162f565b6001600160a01b038216610a095760405162461bcd60e51b81526004016103e2906116ab565b610a168383836001610d5c565b826001600160a01b0316610a29826105a7565b6001600160a01b031614610a4f5760405162461bcd60e51b81526004016103e29061162f565b600081815260046020908152604080832080546001600160a01b03199081169091556001600160a01b0387811680865260038552838620805460001901905590871680865283862080546001019055868652600290945282852080549092168417909155905184937fddf252ad1be2c89b69c2b068fc378daa952ba7f163c4a11628f55a4df523b3ef91a461043f838383600161069e565b6000908152600260205260409020546001600160a01b031690565b610b0a6107d8565b6001600160a01b0316610b1b610631565b6001600160a01b0316146104995760405162461bcd60e51b81526004016103e2906117ea565b600a80546001600160a01b038381166001600160a01b0319831681179093556040519116919082907f8be0079c531659141344cd1fd0a4f28419497f9722a3daafe3b4186f6b6457e090600090a35050565b816001600160a01b0316836001600160a01b03161415610bc55760405162461bcd60e51b81526004016103e2906116ef565b6001600160a01b0383811660008181526005602090815260408083209487168084529490915290819020805460ff1916851515179055517f17307eab39ab6107e8899845ad3d59bd9653f200f220920489ca2b5937696c3190610c299085906114e1565b60405180910390a3505050565b610c418484846109aa565b610c4d84848484610e0f565b61069e5760405162461bcd60e51b81526004016103e290611597565b60408051602081019091526000815290565b60606000610c8883610f2a565b600101905060008167ffffffffffffffff811115610cb657634e487b7160e01b600052604160045260246000fd5b6040519080825280601f01601f191660200182016040528015610ce0576020820181803683370190505b5090508181016020015b600019016f181899199a1a9b1b9c1cb0b131b232b360811b600a86061a8153600a8504945084610d1957610d1e565b610cea565b509392505050565b6001600160e01b031981166301ffc9a760e01b14919050565b600080610d4b83610ae7565b6001600160a01b0316141592915050565b610d688484848461069e565b6001811115610d895760405162461bcd60e51b81526004016103e290611940565b816001600160a01b038516610da657610da181611002565b610dc9565b836001600160a01b0316856001600160a01b031614610dc957610dc98582611046565b6001600160a01b038416610de557610de0816110e3565b610e08565b846001600160a01b0316846001600160a01b031614610e0857610e0884826111bc565b5050505050565b6000610e23846001600160a01b0316611200565b15610f1f57836001600160a01b031663150b7a02610e3f6107d8565b8786866040518563ffffffff1660e01b8152600401610e6194939291906114a4565b602060405180830381600087803b158015610e7b57600080fd5b505af1925050508015610eab575060408051601f3d908101601f19168201909252610ea891810190611401565b60015b610f05573d808015610ed9576040519150601f19603f3d011682016040523d82523d6000602084013e610ede565b606091505b508051610efd5760405162461bcd60e51b81526004016103e290611597565b805181602001fd5b6001600160e01b031916630a85bd0160e11b1490506109a2565b506001949350505050565b60008072184f03e93ff9f4daa797ed6e38ed64bf6a1f0160401b8310610f695772184f03e93ff9f4daa797ed6e38ed64bf6a1f0160401b830492506040015b6d04ee2d6d415b85acef81000000008310610f95576d04ee2d6d415b85acef8100000000830492506020015b662386f26fc100008310610fb357662386f26fc10000830492506010015b6305f5e1008310610fcb576305f5e100830492506008015b6127108310610fdf57612710830492506004015b60648310610ff1576064830492506002015b600a83106102e25760010192915050565b600880546000838152600960205260408120829055600182018355919091527ff3f7a9fe364faab93b216da50a3214154f22a0a2b415b23a84c8169e8b636ee30155565b60006001611053846105db565b61105d91906119b6565b6000838152600760205260409020549091508082146110b0576001600160a01b03841660009081526006602090815260408083208584528252808320548484528184208190558352600790915290208190555b5060009182526007602090815260408084208490556001600160a01b039094168352600681528383209183525290812055565b6008546000906110f5906001906119b6565b6000838152600960205260408120546008805493945090928490811061112b57634e487b7160e01b600052603260045260246000fd5b90600052602060002001549050806008838154811061115a57634e487b7160e01b600052603260045260246000fd5b60009182526020808320909101929092558281526009909152604080822084905585825281205560088054806111a057634e487b7160e01b600052603160045260246000fd5b6001900381819060005260206000200160009055905550505050565b60006111c7836105db565b6001600160a01b039093166000908152600660209081526040808320868452825280832085905593825260079052919091209190915550565b6001600160a01b03163b151590565b80356001600160a01b03811681146102e557600080fd5b600060208284031215611237578081fd5b6107048261120f565b60008060408385031215611252578081fd5b61125b8361120f565b91506112696020840161120f565b90509250929050565b600080600060608486031215611286578081fd5b61128f8461120f565b925061129d6020850161120f565b9150604084013590509250925092565b600080600080608085870312156112c2578081fd5b6112cb8561120f565b93506112d96020860161120f565b925060408501359150606085013567ffffffffffffffff808211156112fc578283fd5b818701915087601f83011261130f578283fd5b81358181111561132157611321611a4a565b604051601f8201601f19908116603f0116810190838211818310171561134957611349611a4a565b816040528281528a6020848701011115611361578586fd5b82602086016020830137918201602001949094529598949750929550505050565b60008060408385031215611394578182fd5b61139d8361120f565b9150602083013580151581146113b1578182fd5b809150509250929050565b600080604083850312156113ce578182fd5b6113d78361120f565b946020939093013593505050565b6000602082840312156113f6578081fd5b813561070481611a60565b600060208284031215611412578081fd5b815161070481611a60565b60006020828403121561142e578081fd5b5035919050565b6000815180845261144d8160208601602086016119cd565b601f01601f19169290920160200192915050565b600083516114738184602088016119cd565b8351908301906114878183602088016119cd565b01949350505050565b6001600160a01b0391909116815260200190565b6001600160a01b03858116825284166020820152604081018390526080606082018190526000906114d790830184611435565b9695505050505050565b901515815260200190565b6000602082526107046020830184611435565b6020808252602d908201527f4552433732313a2063616c6c6572206973206e6f7420746f6b656e206f776e6560408201526c1c881bdc88185c1c1c9bdd9959609a1b606082015260800190565b6020808252602b908201527f455243373231456e756d657261626c653a206f776e657220696e646578206f7560408201526a74206f6620626f756e647360a81b606082015260800190565b60208082526032908201527f4552433732313a207472616e7366657220746f206e6f6e20455243373231526560408201527131b2b4bb32b91034b6b83632b6b2b73a32b960711b606082015260800190565b60208082526026908201527f4f776e61626c653a206e6577206f776e657220697320746865207a65726f206160408201526564647265737360d01b606082015260800190565b60208082526025908201527f4552433732313a207472616e736665722066726f6d20696e636f72726563742060408201526437bbb732b960d91b606082015260800190565b6020808252601c908201527f4552433732313a20746f6b656e20616c7265616479206d696e74656400000000604082015260600190565b60208082526024908201527f4552433732313a207472616e7366657220746f20746865207a65726f206164646040820152637265737360e01b606082015260800190565b60208082526019908201527f4552433732313a20617070726f766520746f2063616c6c657200000000000000604082015260600190565b60208082526026908201527f4d696e74696e6720616464726573732063616e6e6f74206265207a65726f206160408201526564647265737360d01b606082015260800190565b60208082526029908201527f4552433732313a2061646472657373207a65726f206973206e6f7420612076616040820152683634b21037bbb732b960b91b606082015260800190565b6020808252818101527f4552433732313a206d696e7420746f20746865207a65726f2061646472657373604082015260600190565b6020808252818101527f4f776e61626c653a2063616c6c6572206973206e6f7420746865206f776e6572604082015260600190565b60208082526018908201527f4552433732313a20696e76616c696420746f6b656e2049440000000000000000604082015260600190565b60208082526021908201527f4552433732313a20617070726f76616c20746f2063757272656e74206f776e656040820152603960f91b606082015260800190565b6020808252603d908201527f4552433732313a20617070726f76652063616c6c6572206973206e6f7420746f60408201527f6b656e206f776e6572206f7220617070726f76656420666f7220616c6c000000606082015260800190565b6020808252602c908201527f455243373231456e756d657261626c653a20676c6f62616c20696e646578206f60408201526b7574206f6620626f756e647360a01b606082015260800190565b60208082526035908201527f455243373231456e756d657261626c653a20636f6e7365637574697665207472604082015274185b9cd9995c9cc81b9bdd081cdd5c1c1bdc9d1959605a1b606082015260800190565b90815260200190565b600082198211156119b1576119b1611a34565b500190565b6000828210156119c8576119c8611a34565b500390565b60005b838110156119e85781810151838201526020016119d0565b8381111561069e5750506000910152565b600281046001821680611a0d57607f821691505b60208210811415611a2e57634e487b7160e01b600052602260045260246000fd5b50919050565b634e487b7160e01b600052601160045260246000fd5b634e487b7160e01b600052604160045260246000fd5b6001600160e01b03198116811461077057600080fdfea2646970667358221220fcf57c4293b770230c747c27cdcba86a765974fc3eba609d11064d3c10845fe864736f6c63430008010033",
  "immutableReferences": {},
  "source": "// SPDX-License-Identifier: MIT\npragma solidity ^0.8.0;\n\nimport \"@openzeppelin/contracts/token/ERC721/extensions/ERC721Enumerable.sol\";\nimport \"@openzeppelin/contracts/access/Ownable.sol\";\nimport \"@openzeppelin/contracts/utils/math/SafeMath.sol\";\ncontract MyToken is ERC721Enumerable, Ownable {\n    using SafeMath for uint256;\n\n    uint256 private _currentTokenId = 0;\n\n    constructor() ERC721(\"MyToken\", \"MTKN\") {}\n\n    function mint() public {\n    require(_msgSender() != address(0), \"Minting address cannot be zero address\");\n\n    _currentTokenId = _currentTokenId.add(1);\n    _mint(_msgSender(), _currentTokenId);\n}\n\n\n    function getCurrentTokenId() external view returns (uint256) {\n        return _currentTokenId;\n    }\n}\n",
  "sourcePath": "/Users/aranudayakumar/Documents/diplomachain/contracts/MyToken.sol",
  "compiler": {
    "name": "solc",
    "version": "0.8.1+commit.df193b15.Emscripten.clang"
  },
  "schemaVersion": "3.4.16",
  "updatedAt": "2023-09-30T22:55:55.630Z",
  "devdoc": {
    "kind": "dev",
    "methods": {
      "approve(address,uint256)": {
        "details": "See {IERC721-approve}."
      },
      "balanceOf(address)": {
        "details": "See {IERC721-balanceOf}."
      },
      "getApproved(uint256)": {
        "details": "See {IERC721-getApproved}."
      },
      "isApprovedForAll(address,address)": {
        "details": "See {IERC721-isApprovedForAll}."
      },
      "name()": {
        "details": "See {IERC721Metadata-name}."
      },
      "owner()": {
        "details": "Returns the address of the current owner."
      },
      "ownerOf(uint256)": {
        "details": "See {IERC721-ownerOf}."
      },
      "renounceOwnership()": {
        "details": "Leaves the contract without owner. It will not be possible to call `onlyOwner` functions. Can only be called by the current owner. NOTE: Renouncing ownership will leave the contract without an owner, thereby disabling any functionality that is only available to the owner."
      },
      "safeTransferFrom(address,address,uint256)": {
        "details": "See {IERC721-safeTransferFrom}."
      },
      "safeTransferFrom(address,address,uint256,bytes)": {
        "details": "See {IERC721-safeTransferFrom}."
      },
      "setApprovalForAll(address,bool)": {
        "details": "See {IERC721-setApprovalForAll}."
      },
      "supportsInterface(bytes4)": {
        "details": "See {IERC165-supportsInterface}."
      },
      "symbol()": {
        "details": "See {IERC721Metadata-symbol}."
      },
      "tokenByIndex(uint256)": {
        "details": "See {IERC721Enumerable-tokenByIndex}."
      },
      "tokenOfOwnerByIndex(address,uint256)": {
        "details": "See {IERC721Enumerable-tokenOfOwnerByIndex}."
      },
      "tokenURI(uint256)": {
        "details": "See {IERC721Metadata-tokenURI}."
      },
      "totalSupply()": {
        "details": "See {IERC721Enumerable-totalSupply}."
      },
      "transferFrom(address,address,uint256)": {
        "details": "See {IERC721-transferFrom}."
      },
      "transferOwnership(address)": {
        "details": "Transfers ownership of the contract to a new account (`newOwner`). Can only be called by the current owner."
      }
    },
    "version": 1
  },
  "userdoc": {
    "kind": "user",
    "methods": {},
    "version": 1
  }
}